:100000004DC067C066C065C064C063C062C061C0E7
:1000100060C05FC05EC05DC05CC05BC06BC059C0EB
:1000200059C057C056C055C054C053C052C051C02B
:1000300050C04FC073C074C075C076C077C078C060
:1000400079C07AC07BC07CC07DC07EC07FC080C0CC
:1000500081C082C083C084C085C086C087C088C07C
:1000600090C091C092C093C094C095C096C097C0F4
:1000700098C099C09AC09BC09CC09DC09EC09FC0A4
:10008000A0C0A1C0A2C0A3C0A4C0A5C0FAF0C896D9
:100090006432281E19140F0A0501010111241FBE24
:1000A000CFEFD4E0DEBFCDBF11E0A0E0B1E0E2E8E9
:1000B000FBE002C005900D92A030B107D9F711E026
:1000C000A0E0B1E001C01D92A730B107E1F79FD0D9
:1000D00056C596CF1F920F920FB60F9211248F9391
:1000E0008FEF85B988B98BB98F910F900FBE0F90A4
:1000F0001F9018951F920F920FB60F92112415B8EA
:1001000018B81BB80F900FBE0F901F901895FC01E8
:100110008631910570F5E65EFF4F0994409A089587
:100120002D9A08952C9A08952B9A08952A9A089545
:10013000299A0895289A08955F9A08955E9A0895D5
:100140005D9A08952F9A08952E9A08955C9A0895BD
:100150005B9A08955A9A0895599A0895589A08955D
:10016000459A0895449A0895439A0895429A0895A5
:10017000419A0895FC018631910570F5E05DFF4FCD
:100180000994409808952D9808952C9808952B98D7
:1001900008952A98089529980895289808955F98B1
:1001A00008955E9808955D9808952F9808952E9863
:1001B00008955C9808955B9808955A980895599801
:1001C0000895589808954598089544980895439837
:1001D00008954298089541980895CF93DF93C0E021
:1001E000D0E0CE0194DF2196C631D105D1F7DF9161
:1001F000CF910895CF93DF93C0E0D0E0CE01BADF76
:100200002196C631D105D1F7DF91CF9108952F9274
:100210003F924F925F926F927F928F929F92AF9296
:10022000BF92CF92DF92EF92FF920F931F93CF93E3
:10023000DF938FEF84B987B98AB915B818B81BB89E
:1002400088E893E128EC30E0F9013197F1F7019764
:10025000D9F7C5E1D0E004E110E0B3E1AB2EB12C59
:10026000A2E18A2E912C289A80E29EE4FC0131972B
:10027000F1F72F9AFC013197F1F72C9AFC01319795
:10028000F1F7439AFC013197F1F7459AFC01319758
:10029000F1F7299AFC013197F1F72E9AFC01319779
:1002A000F1F72A9AFC013197F1F7589AFC0131973E
:1002B000F1F7449AFC013197F1F72B9AFC01319741
:1002C000F1F72D9AFC013197F1F7419AFC01319732
:1002D000F1F7429AFC013197F1F7409AFC0131970E
:1002E000F1F75F9AFC013197F1F75C9AFC013197C5
:1002F000F1F75B9AFC013197F1F75D9AFC013197B8
:10030000F1F7599AFC013197F1F75E9A0197F1F7ED
:100310005A9A8CE494E0E8ECF0E03197F1F7019719
:10032000D1F715B818B81BB881E090E0909306019A
:1003300080930501109202011092010110920401B4
:1003400010920301F0E22F2EFEE43F2EE1E16E2E2B
:10035000712CDEC3DCDEC1010197F1F78091010150
:100360009091020101969093020180930101809186
:100370000101909102018731910564F3109202010D
:10038000109201010DC0F6DEC1010197F1F78091D5
:100390000101909102010196909302018093010165
:1003A00080910101909102018631910564F31092D0
:1003B00002011092010180E090E0A9DE11C09E01CF
:1003C000281B390BC901A3DEC1010197F1F7809108
:1003D0000101909102010196909302018093010125
:1003E00080910101909102018631910544F31092B0
:1003F00002011092010180E090E089DE11C09E01AF
:10040000281B390BC901B6DEC1010197F1F78091B4
:1004100001019091020101969093020180930101E4
:1004200080910101909102018631910544F310926F
:100430000201109201012FC09E01281B390BC90136
:1004400066DE80E797E10197F1F7809101019091D5
:1004500002019E01281B390BC9018CDE809101012C
:100460009091020101969093020180930101809185
:1004700001019091020187319105F4F2109202017D
:1004800010920101809103019091040101969093D3
:10049000040180930301809103019091040103976B
:1004A00034F3109202011092010110920401109293
:1004B000030141C09E01281B390BC90128DE809130
:1004C0000101909102019801281B390BC9011FDE1F
:1004D00080E797E10197F1F7809101019091020186
:1004E0009E01281B390BC90145DE809101019091C5
:1004F00002019801281B390BC9013CDE80910101E2
:1005000090910201019690930201809301018091E4
:100510000101909102018731910564F2109202016C
:100520001092010180910301909104010196909332
:1005300004018093030180910301909104010397CA
:1005400034F31092020110920101109204011092F2
:10055000030154C09E01281B390BC901D8DD8091CD
:100560000101909102019801281B390BC901CFDDCF
:1005700080910101909102019501281B390BC9015D
:10058000C6DD80E49FE10197F1F780910101909130
:1005900002019E01281B390BC901ECDD809101018C
:1005A000909102019801281B390BC901E3DD80916C
:1005B0000101909102019501281B390BC901DADD77
:1005C0008091010190910201019690930201809324
:1005D00001018091010190910201873191050CF494
:1005E000B9CF109202011092010180910301909104
:1005F000040101969093040180930301809103010B
:100600009091040103972CF31092020110920101C2
:10061000109204011092030166C09E01281B390B41
:10062000C90175DD80910101909102019801281B9B
:10063000390BC9016CDD8091010190910201950196
:10064000281B390BC90163DD8091010190910201E2
:100650009401281B390BC9015ADD80E197E201970B
:10066000F1F780910101909102019E01281B390B45
:10067000C90180DD80910101909102019801281B40
:10068000390BC90177DD809101019091020195013B
:10069000281B390BC9016EDD809101019091020187
:1006A0009401281B390BC90165DD809101019091EE
:1006B0000201019690930201809301018091010152
:1006C00090910201873191050CF4A7CF109202019D
:1006D0001092010180910301909104010196909381
:1006E0000401809303018091030190910401049718
:1006F0002CF378C09E01281B390BC90108DD8091BD
:100700000101909102019801281B390BC901FFDCFE
:1007100080910101909102019501281B390BC901BB
:10072000F6DC80910101909102019401281B390BA4
:10073000C901EDDC80910101909102019301281B18
:10074000390BC901E4DCC7010197F1F78091010180
:10075000909102019E01281B390BC9010BDD80918C
:100760000101909102019801281B390BC90102DD9A
:1007700080910101909102019501281B390BC9015B
:10078000F9DC80910101909102019401281B390B41
:10079000C901F0DC80910101909102019301281BB5
:1007A000390BC901E7DC80910101909102010196AA
:1007B00090930201809301018091010190910201C7
:1007C000873191050CF496CF10920201109201012D
:1007D000809103019091040101969093040180930C
:1007E000030104C070EEE72E7EE2F72E8091030134
:1007F00090910401049704F38AC09E01281B390BD1
:10080000C90185DC80910101909102019801281BAA
:10081000390BC9017CDC80910101909102019501A5
:10082000281B390BC90173DC8091010190910201F1
:100830009401281B390BC9016ADC80910101909158
:1008400002019301281B390BC90161DC8091010170
:10085000909102019701281B390BC90158DCC60190
:100860000197F1F780910101909102019E01281BEF
:10087000390BC9017FDC809101019091020198013F
:10088000281B390BC90176DC80910101909102018E
:100890009501281B390BC9016DDC809101019091F4
:1008A00002019401281B390BC90164DC809101010C
:1008B000909102019301281B390BC9015BDC8091E7
:1008C0000101909102019701281B390BC90152DCEB
:1008D0008091010190910201019690930201809311
:1008E00001018091010190910201873191050CF481
:1008F00084CF109202011092010180910301909126
:1009000004010196909304018093030107C060E104
:10091000E62EF12C50EBC52E56E3D52E8091030127
:10092000909104010497ECF29CC09E01281B390BA6
:10093000C901EDDB80910101909102019801281B12
:10094000390BC901E4DB809101019091020195010D
:10095000281B390BC901DBDB809101019091020159
:100960009401281B390BC901D2DB809101019091C0
:1009700002019301281B390BC901C9DB80910101D8
:10098000909102019601281B390BC901C0DB8091AF
:100990000101909102019701281B390BC901B7DBB6
:1009A000C2010197F1F780910101909102019E012E
:1009B000281B390BC901DEDB8091010190910201F6
:1009C0009801281B390BC901D5DB80910101909159
:1009D00002019501281B390BC901CCDB8091010173
:1009E000909102019401281B390BC901C3DB80914E
:1009F0000101909102019301281B390BC901BADB57
:100A000080910101909102019601281B390BC901C7
:100A1000B1DB80910101909102019701281B390BF4
:100A2000C901A8DB80910101909102010196909388
:100A300002018093010180910101909102018731AF
:100A400091050CF472CF1092020110920101809175
:100A50000301909104010196909304018093030196
:100A60000AC040E1C42ED12C3FE0E32EF12C20E857
:100A7000422E2EE3522E809103019091040104979F
:100A8000D4F210920201109201011092040110920E
:100A9000030190E6C92E9AEED92E80E5E82E83EC6C
:100AA000F82E23C09ADBC6010197F1F7A3DBC7013B
:100AB0000197F1F792DB86E292E0E8ECF0E0319703
:100AC000F1F70197D1F796DB8CE494E0E8ECF0E0E5
:100AD0003197F1F70197D1F78091030190910401CB
:100AE00001969093040180930301809103019091FA
:100AF00004010497BCF280910501909106010196D2
:100B00009093060180930501109202011092010159
:100B1000809105019091060102970CF428CC14BC39
:100B200083E085BD81E080936E0080916E008260DD
:100B300080936E00789481E08093000120E030E0A3
:100B400063E040ED57E011C0F89415BC80910001BE
:100B500087BD809100018F5F8093000165BD78940F
:100B6000CA010197F1F72F5F3F4F82E0203038072D
:100B70005CF33093040120930301F89474CBF89450
:020B8000FFCFA5
:00000001FF
